:020000041000EA
:10000000002008205D0100101301001015010010F0
:100010001101001011010010110100101101001058
:100020001101001011010010110100101701001042
:100030001101001011010010190100101B01001026
:100040001D0100101D0100101D0100101D010010F8
:100050001D0100101D0100101D0100101D010010E8
:100060001D0100101D0100101D0100101D010010D8
:100070001D0100101D0100101D0100101D010010C8
:100080001D0100101D0100101D0100101D010010B8
:100090001D0100101D0100101D0100101D010010A8
:1000A0001D0100101D0100101D0100101D01001098
:1000B0001D0100101D0100101D0100101D01001088
:1000C0001D0100101D0100101D0100101D01001078
:1000D0001D0100101D0100101D0100101D01001068
:1000E0001D0100101D0100101D0100101D01001058
:1000F0001D0100101D0100101D0100101D01001048
:100100001D0100101D0100101D0100101D01001037
:1001100000BE00BE00BE00BE00BE00BEEFF3058004
:10012000103800BEF2EB887134C3021054C30210C1
:10013000A801001090A31AE7D3DEFFFF42012110AF
:10014000FF010000C4F50200793512AB4FF000004A
:100150002049086006C881F3088810474FF05040D6
:10016000006810B14FF00000F2E70FA40ECC002998
:1001700002D000F015F8F9E71749184A002000E00E
:1001800001C19142FCD1002080F30A8814498847BC
:10019000144988471449884700BEFDE701C901C2D8
:1001A0009A42FBD3704700BF54C3021010010020D5
:1001B000B8340020FCF602100000082000000820DF
:1001C000FCF60210001008200010082000000000BB
:1001D0007047000008ED00E0B83400200C44002017
:1001E000B55400104107001079540010F8B500BF55
:1001F0000348044B834202D0034B03B118477047B6
:10020000B8340020B834002000000000064B074935
:10021000C91A891048BF0131491003D0044B0BB1F2
:1002200001481847704700BFB8340020B834002098
:100230000000000010B5064C237843B9FFF7D8FF43
:10024000044B13B10448AFF300800123237010BDA9
:100250004836002000000000A47A021008B5044BC4
:100260001BB104490448AFF30080BDE80840CDE766
:10027000000000004C360020A47A021010B504469D
:1002800001F0C8F90146204608F0B3FA012010BD7C
:1002900008B5024908F0ADFA012008BD10F70200C8
:1002A00010B50121044614F0D5F80146034B204651
:1002B0004900196008F09DFA012010BD482D00206A
:1002C00010B5012114F0C6F8044600F063FA4FF0AF
:1002D000010343EC4440002010BD00BF08B50121DC
:1002E00014F0B8F801F0A4F8002008BD38B50121D9
:1002F000054614F0AFF802210446284608F0E4F958
:10030000003818BF012040EC4040002038BD00BF3D
:1003100038B50121044614F09DF802210546204617
:1003200014F098F804462946044805F025FB2146B8
:10033000034805F021FB002038BD00BFA87A021059
:10034000C87A021008B5012114F084F80146024869
:1003500005F012FB002008BDE47A021070B50546D6
:1003600014F004FC0446164E14F040FC31462046BE
:10037000442214F013FC20460522002108F06DFBF6
:10038000002220460F4914F069F920460E4908F072
:10039000BFFB31462046442214F000FC20464FF0BB
:1003A000FF32002108F059FB00222946204614F0B4
:1003B00055F92046054908F0ABFB204670BD00BF4B
:1003C0000000FC43CC920210087B0210107B02104C
:1003D00070B51C48A0B005F0CFFA80220021684615
:1003E0001FF0C2FE00256E4606E00D2C0CD0013534
:1003F0007F2D06F8014B07D005F0C4F9C4B22046A2
:1004000005F0F8F90A2CF0D100236D4468462B70F2
:1004100020F0F4FF451C284603F05AFB044630B197
:100420002A46694620F074FF204620B070BD064B76
:1004300019221B680121DB6804481FF085F80120A0
:1004400005F01AF8147B021080330020187B02108C
:100450002DE9F8434FF4806003F03AFB00284CD0BC
:10046000002306464FF480681F46DFF8A090037013
:10047000FFF7AEFF0546304620F0C0FF0446284691
:1004800020F0BCFF04440134444518D828461C49D8
:1004900020F0C2FD08B3304620F0B0FF29463044BA
:1004A00020F02AFCB9F80030013703802A4639468B
:1004B000144805F061FA284603F02EFBD8E74FEA0E
:1004C00048084146304603F015FB80B106460C490A
:1004D000284620F0A1FD0028DDD1284603F01CFBB2
:1004E0003146094805F048FA3046BDE8F883304601
:1004F00003F012FB284603F00FFB0026F4E700BFD1
:10050000347B0210507B0210407B0210247D0210CD
:100510002DE9F04182B00D46074605F031F9002083
:1005200000F038F900244FF0010646EC44404FF447
:10053000FA6000F07DFF002D40F0AA806E4805F0C3
:100540009BF93846FFF70AFF0446002800F0C780F1
:100550006A4B196813F078FE002800F089800022A9
:100560004FF0FF31204608F0BCF80146644805F022
:1005700003FA6FF00101204607F02DFF614B204682
:10058000196813F061FE00285FD000224FF0FF31A0
:10059000204608F0A6F801465B4805F0EDF96FF03B
:1005A0000101204607F017FF002D5ED029462046A6
:1005B00013F04AFE002839D000224FF0FF312046C8
:1005C00008F08FF80146514805F0D6F96FF00101A7
:1005D000204607F000FF4E4B2046196813F034FE0A
:1005E000C0B100224FF0FF31204608F07AF80146F2
:1005F000484805F0C1F96FF00101204607F0EBFE15
:1006000020460EF0C0FC444805F036F9002002B048
:10061000BDE8F08103460146CDE900004FF0FF320E
:10062000204608F077FB0028DBD1E9E703460146C6
:10063000CDE900004FF0FF32204608F06BFB0028A8
:10064000BAD1364805F018F9C5E703460146CDE9A9
:1006500000004FF0FF32204608F05CFB002894D1E8
:100660002F4805F009F9002DA0D12E4B1D689DE7FC
:1006700003460146CDE900004FF0FF32204608F066
:1006800049FB00287FF46BAF274805F0F5F875E7C4
:1006900046EC4040254805F0EFF8FFF7D9FE054647
:1006A000234805F0E9F8284620F0A8FE0446E8B102
:1006B0000146204805F060F9082400264FF00108A3
:1006C0004FF0000343EC4060502000F0B1FE48ECD6
:1006D0004060502000F0ACFE013CF1D12EE71648FE
:1006E00005F0CAF8012002B0BDE8F081134805F01A
:1006F000C3F82546E0E700BFD47B0210582D002048
:10070000187C0210542D0020607C0210947C021092
:100710004C2D0020B07C0210C87C0210787C0210A6
:100720004C7C0210502D00202C7C0210607B0210AB
:10073000787B0210907B0210FC7B0210AC7B0210D5
:1007400070B501211048FFF7E3FE104805F094F85A
:100750004FF00106002446EC4040C82000F068FE3F
:1007600044EC404000F056FF0446C8200D4600F01F
:100770005FFE00F04FFF0246A21A65EB010304483A
:1007800005F0FAF8E6E700BFAC920210F07C021028
:100790000C7D021030B44FF0000343EC440043ECF6
:1007A000400005254FF480740B4BC20053F8201015
:1007B00003EB800081F0400102F1804303F5203318
:1007C00001F0C00200F5805100F540500A605D6004
:1007D000046030BC704700BF048003400FB400B514
:1007E00083B0049C074805F047F83CB105A92046B2
:1007F000019104F0ABFD044805F03EF8012004F03F
:10080000BDFD00BFD4880210247D021070B586465D
:10081000EFF3108572B6124CD4E8CF6F0120002E92
:10082000FAD1C4E8460F002EF6D1BFF35F8F4FF028
:10083000010CC80801F007030CFA03F31EF800C00E
:100840001CEA030608D14CEA030C0EF800C0C4E809
:100850008F6F85F3108870BD1046FFF7BFFF00BF94
:10086000273B0020F8B5EFF3108772B61C4ED6E890
:10087000CF5F0124002DFAD1C6E8454F002DF6D1F7
:10088000BFF35F8F9A421BD8012502E001329342E9
:1008900022D3D40810F804E002F0070C05FA0CFC8F
:1008A0001EEA0C0FF2D14EEA0C0E00F804E01046DE
:1008B0000023C6E88F3F87F31088984207DBF8BD16
:1008C0000023C6E88F3F87F310884FF0FF300029E0
:1008D000F5D00698FFF782FF4FF0FF30E8E700BF42
:1008E000273B0020044A1078431CDBB2182B28BF9A
:1008F00010231370704700BF5C2D002010B5054C0D
:1009000082B001461F23182200940348FFF7AAFF74
:1009100002B010BDE4880210383F00204FF0E02202
:10092000936843F000539360704700BF0021044B6D
:1009300003F12002C3E88F1F01339342FAD17047BD
:100940001C3B00204FF0E0234FF08032C3F800241E
:10095000C3F80424C3F80824C3F80C24C3F81024F3
:10096000C3F81424C3F81824C3F81C24C3F82024A3
:10097000C3F82424C3F82824C3F82C24C3F8302453
:10098000704700BF012300F01F029340400941B1AE
:10099000800000F1604000F56140C0F880310360E4
:1009A0007047024A203042F82030704700E100E0F2
:1009B0000123064A410952F8212000F01F0003FAE2
:1009C00000F01040003818BF0120704700E100E03F
:1009D00001224309034900F01F008240403341F8DF
:1009E0002320704700E100E0054A10309268054B73
:1009F00052F82000C01A2F288CBF00200120704719
:100A000000ED00E0602D0020F8B50D46EFF31087F3
:100A100072B6124ED6E8CF2F0123002AFAD1C6E8CB
:100A2000423F002AF6D1BFF35F8F0D4B00F1100457
:100A30009B680C4A53F82430934203D0994201D06A
:100A400000F0A4FF064B9B6843F82450BFF35F8F70
:100A50000023C6E88F3F87F31088F8BD253B0020B0
:100A600000ED00E01D0100102DE9F04F81468B469E
:100A7000164683B0EFF3108372B6DFF8D0A100936F
:100A8000DAE8CF1F01230029FAD1CAE8413F002943
:100A9000F6D1BFF35F8F664B93F90040002CC0F294
:100AA000A080644D04EB440705EB870898F8061016
:100AB00009F110091970604BBF009B6853F82900B9
:100AC0006300411B2F292FD95C49884240F0A48044
:100AD0001C445B4B02372F44043BDB1BC3F34A032C
:100AE0006FEAC3434FF421416FEAD34325F8241042
:100AF00005EB840463804BF60153A380FF2348F089
:100B00000100E671C4F808B0A3714B4B9B6843F831
:100B10002900BFF35F8F0023CAE88F3F009B83F358
:100B2000108803B0BDE8F08F20F0010E9EF807108A
:100B3000B1422ED84FF42143EB53414BB91C294409
:100B4000043B04375B1A2F44AEF10401C91BC1F307
:100B50004A043C49C3F34A030B432143A8F8041059
:100B60003949A8F802304AF6AA2073465B1B5B415C
:100B70005843000D88F8076088F80600C8F808B0E8
:100B800048F00100CEF80010BFE7D179B1422ED96C
:100B900096469EF906C00CEB4C02BCF1000F05EB2B
:100BA0008202F2DA4BF601510EF10402A8F10407B9
:100BB000BF1AC7F34A076FEAC7476FEAD7478EF8ED
:100BC000064003EB0408204C05EB8803AEF80470E4
:100BD00045F82840998083F806C0DE71C3F808B054
:100BE00093E700F0D3FE124B93F9004059E77246A9
:100BF00032F8041F490514D44915023102EB4101B2
:100C000001916FF00701C91B019F491B3944C1F3D2
:100C10004A0141F46041C9E7019300F0B7FE019B2E
:100C200056E701F5FF1101F5FF511F31E4E700BF61
:100C300004440020602D002000ED00E01D010010A4
:100C4000902D002000E0FFFF01488047253B002059
:100C5000F0B5EFF30585EDB2EFF3108C72B62649CF
:100C6000D1E8CF2F0123002AFAD1C1E8423F002A60
:100C7000F6D1BFF35F8F214E40F0010EB4684AF603
:100C8000AA2354F825701E4A0446A41A64416343FB
:100C90001B0D77455BB21BD092F906409C421CD0DD
:100CA00092F912409C4223D092F91E409C4221D0DE
:100CB00092F92A409C4208BF03240FD0114A002415
:100CC000157813708571C1E88F4F8CF31088F0BDD3
:100CD000B2680D4C42F82540F0E7002404EB4404D0
:100CE00002EB8402FF2494714BF601549480E5E7F3
:100CF0000124F3E70224F1E7253B002000ED00E0AA
:100D0000602D0020044400201D01001010B5074C88
:100D100082B001460523002200940548FFF7A2FD9A
:100D20000028A8BFC0F1330002B010BD0089021036
:100D300008440020014B0B44036070471C3B00201B
:100D400070B5104C104DAC420ED2FF26236863B133
:100D5000FFF7C8FD01462046FFF7ECFFA680BFF372
:100D60005F8F0834AC42F1D370BDFFF7BBFD014685
:100D70002046FFF7DFFF2671BFF35F8F0834AC42D8
:100D8000E4D370BDB0340020B834002010B5044660
:100D9000FFF7A8FD01462046FFF7CCFFFF23237194
:100DA000BFF35F8F10BD00BF10B504460120FFF7F1
:100DB000A5FD034B03442360BFF35F8F10BD00BF4D
:100DC0001C3B0020024B0B440360BFF35F8F704756
:100DD0001C3B00200D4B1A68EFF3108172B6D2E86D
:100DE000CFCF0120BCF1000FF9D1C2E84C0FBCF10C
:100DF000000FF4D1BFF35F8F00221B68C3E88F2F71
:100E000081F3108840BF002000217047E443002098
:100E10002DE9F04F2DED028B85B0EFF30583DBB2AA
:100E2000103B9A0818BF01224FF0010103F0030B99
:100E300018BFAF4DAF4B08BFAF4D0BEB820253F85D
:100E4000226001FA0BF205F541539FEDA78B019249
:100E50005A602FE0B3881C0440F19380B379002BD3
:100E600040F0DD80B6F90820002AC0F21E817369C7
:100E700002EB420203EBC203D3E90247B7F1FF3FA3
:100E800008BFB4F1FF3F0ED005EB8B01AB6A0A69D6
:100E9000D21AE31A934205D301232A6A03FA0BF309
:100EA000134200D10C61284600F0ACFBA042B941CE
:100EB000C0F2FB80B6F90830019A002B0093EA6378
:100EC000C8DBD6F8148003EB4309284608EBC907B2
:100ED000D7E9024A00F096FBA04271EB0A01B9DBA8
:100EE000BAF1000FC0F2C380D7E90431834A9342BC
:100EF00000F0ED807A88B6F9080092B242EA00402C
:100F0000984702460B4652EA030100F0B080002BDE
:100F100080F2D180B4EB020E6AEB030A38F9393063
:100F2000C7E902EA002B95DB716903EB430201EB91
:100F3000C202D2E90270BE457AEB000C4FEA4302CE
:100F400088DBB4462CF8083F06E003EB430001EBD6
:100F5000C0005A00D0E90270BE451A447AEB000086
:100F600001EBC20404DB31F93230A446002BECDA89
:100F700028F83930009BACF80030B3881C043FF5EA
:100F80006DAF3369EFF3108272B6D3E8CF0F012152
:100F90000028FAD1C3E8401F0028F6D1BFF35F8FC5
:100FA0004FF6FF74B0880023316900B2B480C1E805
:100FB0008F3F82F310889842FFF650AF0746A9464C
:100FC000746906F1080807EB470E04EBCE03D3E97A
:100FD0000250B6F90830C446002B13DBB246009726
:100FE00004E034F936309446002B09DB03EB43066A
:100FF00004EBC602D2E90271BD4270EB0101F0DAE6
:101000005646009FACF8007034F93E7024F83E302C
:10101000002FD8DAB3794D46002B3FF423AF0023DD
:10102000B371B6F9083006F10808581C3DD01A46CD
:10103000776903E08046591C3FF416AF03EB430188
:1010400007EBC100B0F802C01C461CF4004F9E46DE
:1010500037F93130EED0944280ED028B05D0A8F8FC
:101060000030328927F8312034817246E3E738F8BE
:10107000393033813369EFF3108272B6D3E8CF0F82
:1010800001210028FAD1C3E8401F0028F6D1BFF3A0
:101090005F8F7388316928F83930009B7380002393
:1010A000C1E88F3F82F31088D4E640BF05B0BDECA5
:1010B000028BBDE8F08F2846CDE9022300F0A2FAAA
:1010C000029A039B10EB020E43EB010A26E7084647
:1010D0000B69029198470028C9D00299D1E90023F1
:1010E00011E700BFAFF30080FFFFFFFFFFFFFFFF2F
:1010F00000800B40BC43002000000B40110E00108C
:101100002DE9F84F364C25692DB1BDE8F84F0A217D
:101110003448FFF70FBEDFF8E4800321404600F0BB
:101120005FFA0326C4F80C80FFF7DCFB4FF0504C4D
:101130002D4B267003442361DCF800300F216370CF
:10114000636961801D834FF00405A3F878504FF068
:101150000505A3F890504FF00605A3F8A8504FF0EE
:1011600007050E214FF6FF7208274FF00A0EA3F86D
:10117000C0504FF001094FF00C0C4FF0020B4FF034
:10118000090A0D204FF00B05A3F868111749A2803A
:10119000A3F808E1A160A3F848B0A3F8F0A0A3F871
:1011A0002051A3F838C1A3F85001A3F83090A3F858
:1011B0006060A3F8D8701A800D4B3046C8F82070D4
:1011C0000C49DC60FFF720FC49463046FFF7DAFBAC
:1011D000094B0A211F640348BDE8F84FFFF7AABD79
:1011E000A82D0020E44300201C3B0020FFFF10003E
:1011F000BC430020110E001000200B4000000B40EB
:1012000000487047A82D0020F8B59DF820500446EE
:1012100017461E4635B900F0FDF9874266EB01011D
:1012200000295CDB2169EFF3108372B6D1E8CF0FA0
:1012300001220028FAD1C1E8402F0028F6D1BFF3DF
:101240005F8FB4F90220656902EB4201002A4FEA80
:10125000C10C206905EBC10139DB35F80CE0A4F8BD
:1012600002E04FF0000EC0E88FEF83F3108848884B
:10127000069B0130C0F30E00012838BF01200B612E
:10128000079B48804B61C1E9027640EA024023692E
:10129000EFF3108172B6D3E8CF7F0126002FFAD189
:1012A000C3E8476F002FF6D1BFF35F8FA38825F8FF
:1012B0000C30A2802369C3E88FEF81F310880122EC
:1012C000E368217803F501538A405A60F8BD002293
:1012D000C0E88F2F83F310884FF0FF30F8BD284609
:1012E000F8BD00BF0146F0B50069EFF3108772B694
:1012F000D0E8CF5F0124002DFAD1C0E8454F002D82
:10130000F6D1BFF35F8FB1F902E04C690EEB4E0CE2
:10131000BEF1000F4FEACC05086904EBCC0C3CDBB6
:10132000665B4E800026C0E88F6F87F31088BCF89C
:101330000200CCE902230130C0F30E00012838BFBF
:101340000120059BACF80200CCF81030069B40EA67
:101350000E40CCF814300B69EFF3108272B6D3E86C
:10136000CFCF0127BCF1000FF9D1C3E84C7FBCF10E
:10137000000FF4D1BFF35F8F8B886353A1F804E0B3
:101380000B69C3E88F6F82F310880122CB6809785C
:1013900003F501538A405A60F0BD0023C0E88F3F37
:1013A00087F310884FF0FF30F0BD00BF034640893F
:1013B000B0EB214F37DD58690A1402EB420210B539
:1013C00000EBC2001C69EFF3108C72B6D4E8CFEFCB
:1013D0000122BEF1000FF9D1C4E84E2FBEF1000F7B
:1013E000F4D1BFF35F8F428889B292B28A4207D0AC
:1013F00000221B69C3E88F2F8CF31088002010BDDA
:1014000042F4004242800121002218699971C0E82B
:101410008F2F8CF310881C78DA68084602F5015388
:10142000A140596010BD0020704700BF4078704750
:101430002DE9F04182B0064600F0ECF84FF47A73E3
:1014400004464FF0FF306FF00042E6FB0341A0423C
:1014500072EB01033ABF044615460D46A61F45F13F
:10146000FF37B44275EB07033CBF0026374600F058
:10147000D1F8301A67EB0101012871F1000106DA99
:101480002046294602B0BDE8F04100F0FBB800F06C
:10149000C1F8864267EB010100290ADB0021174BE6
:1014A0003246009316483B460191FFF71BFF01307F
:1014B000E6D04FF0000C134A1349536A9F4204D8F8
:1014C000906AB042DCD29F42DAD10B68EFF3108011
:1014D00072B6D3E8CF8F5FF0010EB8F1000FF8D1EC
:1014E000C3E848EFB8F1000FF3D1BFF35F8F0B688B
:1014F000C3E88FCF80F3108820BFDEE7D50D001042
:10150000A82D002000000B40E44300202DE9F0430B
:1015100006460D4683B0EFF30584E4B23CB12D4B93
:101520005A6AAA421CD2002003B0BDE8F0832A4FB9
:10153000D7F80C9097F80080484600F063F808F15F
:10154000040859F828301B1A301A65EB010198423B
:1015500071F1000110DB20BF1E4B5A6AAA42E2D390
:1015600014BF012400249B6AB34234BF204644F0D8
:10157000010003B0BDE8F08300F04CF8864265EB53
:101580000101002914DB154B3846CDE90034324601
:101590002B46FFF7A7FE011E0ADD0E4B5A6AAA4230
:1015A00016D39B6AB34211D30B48FFF7FFFEB6E791
:1015B000084B5C6AAC42B6D3641B18BF01249B6A1B
:1015C000B34234BF204644F00100ADE7AA42EBD15C
:1015D00020BFE9E700000B40A82D0020D50D00102A
:1015E00010B4054B054C064AA04214BF1846581CBF
:1015F0005DF8044BFFF70AB93C3F002000800B4028
:101600001C8902100346416A0A46986A596A8A424E
:10161000FAD17047034B596A0A46986A596A91424F
:10162000FAD1704700000B4030B4154A536A9C460B
:10163000946A536A6345FAD1021959414FF0000583
:1016400028BF01250E4B5B6AB5B15A1C08BF1A466C
:1016500008D04FF0FF310A460948436A8B42FCD359
:101660008B4207D1064902E0486A984202D1886A53
:101670009042F9D330BC70479942EDD8F0E700BFF3
:1016800000000B40074A536A9942FCD8994207D19F
:10169000044B02E05A6A914202D19A6A9042F9D808
:1016A000704700BF00000B4000EB400C4FEA8C0C71
:1016B0000CF1804C0CF5803CF0B51646DCF80420AB
:1016C000051FB2F5803F38BF4FF48032EDB238BF0E
:1016D000CCF80420012D2AD94FF40067254C0CF5D5
:1016E0004052176054F82020B2B9DCF80020012DD8
:1016F00082EA461202F0E0020CF5805632602AD9E6
:101700004FF4006144F820304FF480330CF5005260
:101710001160CCF80430F0BD6769B7FBF2FE0EF142
:10172000010E0EEB4E0EBEF1030EFCD2DDE70129D9
:10173000D2D103240CF540521460DCF80820D20703
:10174000FBD5DCF800200B4C82EA461202F0E002E6
:101750000CF5805632600122DCF800504D4005F057
:101760000305356002FA01F1DCF808200A42FBD0DB
:10177000C6E700BF403F0020014B53F820007047F0
:10178000403F002070B4039D04682D0345EA0345E3
:101790001B4B002CB3FBF1F3B2FBF3F61FDB194A32
:1017A000194B904214BF4FF480424FF40042174C43
:1017B0001A6003F580531A60A36832EA0303FBD171
:1017C000212200F540530433016086601A600268EC
:1017D000002AFCDA0822C5601A6070BC70470368F2
:1017E00003F03F038B42DAD18368C3F30B03B342A8
:1017F000D5D1C36803F4EE23AB42D0D1EDE700BFEF
:10180000001BB7000080054000200240000002409D
:1018100030B44FF080441C4B1C60E0B11B4CA3F56E
:101820004053DC611A4C40F0010044401C62596294
:1018300098624FF080454FF0E061134B1548164C0D
:101840001D60846019604AB930BC4FF00042A3F5B6
:1018500080531A607047114BD861EAE74FF47A73EE
:1018600003FB02F2B2F1807F2ABF6FF07F43134681
:101870001A464FF080410A4C08482360094B4260E9
:1018800030BC1960704700BF00B00D40D3C007B036
:101890002D3FF84F00A00140F3FFFF0100800D40F5
:1018A000AC43002000A00D40012300EB400080006D
:1018B00000F1804000F5841041600360704700BF74
:1018C000002370B5DB8A04460D46002242E800F290
:1018D000520254BF1021042144F2522098478646F8
:1018E0002B462246F446BDE870400A214FF4817031
:1018F000604700BF0023DB8A002242E800F2520268
:1019000001D4102118470421184700BF08B5034629
:101910000846191E02DB1AB140F03000FFF7D0FF75
:1019200040F02000FAE700BF034AD2F82838002B25
:10193000FBD0BFF35F8F704700000E400021044BC7
:10194000044ABFF35F8F43F8041B9342F9D17047F9
:101950000C080E402C080E4010B44FF48D704FF45C
:101960002A64064A064B07491460D0601960536820
:10197000002BFCDA5DF8044B704700BF0080044088
:1019800000A0044000B0FA00704700BF08B501484D
:10199000FEF724FF4089021038B5054C054DAC42D6
:1019A00004D254F8043B9847AC42FAD338BD00BF88
:1019B000587A0210987A021010B40748074C084B66
:1019C000084A094904601A608B6832EA0303FBD1B4
:1019D0005DF8044B704700BF002002407F3BEFEFF3
:1019E00000300240F6FFF30300000240044BDB6CC2
:1019F000B3F5004F03D14FF48022024BDA647047F5
:101A000000001150002011504FF0E022044BD2F89A
:101A1000881D0B43C2F8883D10EE3004704700BFAC
:101A2000030330006FF06041044B054A196093686E
:101A3000DB4333F06043FAD1704700BF003002400F
:101A40000000024010B545F25320FFF753FFBDE8F8
:101A5000104003460420184710B545F25320FFF705
:101A600049FFBDE81040034601201847FEF75EBF5E
:101A700010B5054B054C4FF488721846A1681FF04D
:101A800047FCA06010BD00BF0000002000ED00E09A
:101A9000002370B52B4C82B0C4F88430FFF75CFF94
:101AA0000122294BDA63636C012BFCD10321264A06
:101AB000244B11639C6B012CFCD102260525214689
:101AC0000523224A22480096FFF75CFE21462B465A
:101AD000204A21480095FFF755FE00220420314698
:101AE0001E4BFFF7E1FD2146284600221C4BFFF765
:101AF000DBFD0022082011461A4BFFF7D5FD00221E
:101B000009201146174BFFF7CFFD00220620114692
:101B1000134BFFF7C9FD0022114B07201146FFF7B9
:101B2000C3FD0420FFF728FE00240F4BA3FB003564
:101B3000AD0CE0B229460134FFF7B6FE062CF8D111
:101B400002B070BD0000014000300140002F685914
:101B500000000540008C864700800540001BB70050
:101B600080D1F008006CDC0283DE1B4386B003B436
:101B700051FC0804CDE9020151FC0904CDE904013E
:101B800051EC0A04CDE9060103BCF047BDE8005062
:101B90004EEC00C4BDE800504EEC01C4BDE800505E
:101BA0004EEC02C400BD000000B5FFF7DFFF02E00D
:101BB00010FE30F4F8D441EC100443EC112400EE94
:101BC000010410EE010480EE200451EC1004704773
:101BD00000B5FFF7CBFF02E010FE30F4F8D441EC83
:101BE000100443EC112400EE010410EE210480EEF9
:101BF000200451EC3004704700B5FFF7B7FF02E056
:101C000010FE30F4F8D410B541EC100443EC11246C
:101C100051EC040453EC0524A0FB024C5FF0000ED1
:101C2000E0FB03CEE1FB02CE4CEC20440024E1FBC0
:101C300003E444EC30E480EE200451EC5004BDE8B1
:101C40001040704700B5FFF791FF02E010FE30F43E
:101C5000F8D441EC100443EC112451EC2104A0FB16
:101C600001126FEA820252FB100052FB12F252FB89
:101C70001000A0EBD07C53EC04245CFB13F153EC7C
:101C80001524A1FB022001FB030053EC4424A2EB2A
:101C9000000050FB1CF24FEA111312EB017043EBF2
:101CA000E27140EA515020EA915020F0070053ECD5
:101CB0007524A0FB023C53EC752400FB03CC01FB14
:101CC00002CC53EC0424ACEB824C40EA5C70A0F1F3
:101CD000010041EC400480EE200451EC7004704798
:101CE00000B5FFF743FF02E010FE30F4F8D441ECFA
:101CF000100480EE220410EEB204704700B5FFF726
:101D000035FF02E010FE30F4F8D440EC700400EE31
:101D1000010410EE210480EE200451EC30047047E1
:101D200000B5FFF723FF02E010FE30F4F8D440ECDA
:101D3000600400EE010410EE210480EE200451EC5A
:101D40003004704700B5FFF711FF02E010FE30F4D9
:101D5000F8D441EC800400EE010410EE010480EEA2
:101D6000400410EE1304704700B5FFF7FFFE02E0D9
:101D700010FE30F4F8D441EC800400EE010410EEC3
:101D8000010480EE400410EE3304704700B5FFF705
:101D9000EDFE02E010FE30F4F8D441EC100443EC08
:101DA000112400EE010410EE3004C0F300707047FF
:101DB00000B5FFF7DBFE02E010FE30F4F8D441EC92
:101DC000100443EC112400EE010410EE3004C0F3C3
:101DD0008070704700B5FFF7C9FE02E010FE30F4D6
:101DE000F8D443EC102441EC110400EE010410EE91
:101DF00030F48CBF01200020704700BF00B5FFF712
:101E0000B5FE02E010FE30F4F8D443EC102441ECAF
:101E1000110400EE010410EE30F42CBF012000206C
:101E2000704700BF00B5FFF7A1FE02E010FE30F4DE
:101E3000F8D441EC100443EC112400EE010410EE40
:101E400030F42CBF01200020704700BF00B5FFF721
:101E50008DFE02E010FE30F4F8D441EC100443ECA7
:101E6000112400EE010410EE30F48CBF012000209C
:101E7000704700BF404261EB410140F2F334B1FAD8
:101E800081F20C2A0CD2153211FA02F3C2F12002AF
:101E9000D04021FA02F12244584141EB02517047EF
:101EA00069B1C2F12B0230FA02F3C2F12002914073
:101EB00090401943A4EB020201EB0251704701006C
:101EC0004FF00000A4F12004D9D17047012767F337
:101ED0001F5117FA03F817D0A0FB080701FB087180
:101EE000A1FB06785FEAD8469219A6FB047806FBA8
:101EF0000588090351EA1051D7EB003061EB080166
:101F0000A94238BF70470BE00C33012717FA03F8DA
:101F10000FD0A0FB080701FB0871A94238BF70472A
:101F200008BFA04238BF7047001B61EB05010132BA
:101F3000704703F1200311FA03F6D3F12003D840D0
:101F4000D94030437047000000000000000000004E
:101F50000453B1086018850FC8E5F22A6E07271EE2
:101F60000D12B2210412572F12557CBCDA30723F89
:101F700017A717A55531994E9D0DBF0AEEE0AB5F2F
:101F8000E3EF6D9C7636AD6F697BCCE33D62BD7E41
:101F9000F0810682F3FA428F37D5B78A5313C89E71
:101FA0007FABB320491570AF0000000000000000B7
:101FB000025E88155580FF00907806B1A602FE01EA
:101FC000DC4E21F0EB88FB027A7C801F1615F803AB
:101FD0003C5DA9D110A9F304AA466CF5C146EE05F3
:101FE000FF65E4EB09F0E70613C00C9EC3A6E0070B
:101FF000E1BFEC91C46CD808D5AF5EFFDC43CF09DC
:10200000466A72E4D72DC50A237E6E197B2CBA0B63
:10201000BFF571648741AE0C61DFB88CB86EA10D5D
:1020200009A9856DC5B5930E3153B1086018850FA8
:102030003071E498359875105915550580FF0F00DB
:1020400009C3EB8F80FB2F00B1910E9A82F34F00F2
:102050001FE7FD2287E76F00C3A09A298FD78F0063
:102060004F4366AC9BC3AF00412A83A9ADABCF0001
:102070004FB7B41EC68FEF00B6815F09E66F0F0140
:10208000678589660E4C2F011A52DA3240244F01BF
:10209000483A9B6A7CF86E01FF81B709C4C88E017B
:1020A0009C8DBC0B1895AE017010DA6B795DCE017A
:1020B0003A3BE224E921EE0138739533427FECA0EC
:1020C0003114FAF5BD8689916B02FAE6E0F291834C
:1020D000E682120713A85177212621686AB2736A33
:1020E0009D0DBF0AEEE0AB5F19B4E0B71CB66A54B1
:1020F0009596E53DEF07A548D1CBE555DC0E4E3C66
:10210000CE68ADE839B5A432CB3CFA96D9569A28B8
:10211000C9B21CA1F9FCAE21864B6BE58AD2F01640
:102120000453B1086018850F02C00C9EC3A6E007D7
:102130000000000000000000AC79CFD1F71772B1A9
:10214000293BAAB84FEAC12040F00040490043F1C2
:10215000200340F20001C3F6F071C3F10B0320FA33
:1021600003F038BF7047404261F1000170475FEAF9
:10217000D17CC1F30A53A3F2FF330C2B62DA13F1C3
:10218000200FDFDD2DE9F0413C4C70CC4FF0000218
:10219000FFF79CFE1CF0010F04D06FEA0202201A28
:1021A00065EB010102F2FE3C40F2FE739C455CD2FD
:1021B0000A0F334B03EBC2030CCB02F03F0545F093
:1021C0004005801A99410A0E2E4B03EBC20318CB2F
:1021D00002F580725543C01AA1414A0D2A4B03EB08
:1021E000C20318CB124402F5805205FB0255C01AF7
:1021F000A1418A0252EA905242F1000282FB02346B
:102200005B0D53EAC423C01841EB545184FB0234E4
:102210004FF0553383FB043454FB11F304EB930468
:1022200010EB440241EBE473E900A1FB0240C1FB67
:102230000301400A50EBC1504FEA512151EB0C51C0
:10224000BDE8F081B3F5806F07D150EA01320CBFD1
:1022500021EAE17141F400217047002000211CF0C7
:10226000010F08BFC7F6F07170474FF000004FF044
:102270000001A8BFC7F6F071BDE8F0813821001059
:10228000481F0010A81F00103820001040F2000165
:10229000CFF6F0710020704750EA013218BF41F4C8
:1022A000002170477FEAA65540F019814FF4805411
:1022B00020E18CEA11331B0640F0EE80BCF1000FE8
:1022C00067D1C90451EA5031C004B1FA81F4202C1D
:1022D0004BD20125A540A0FB052301FB0533A0FB44
:1022E00003C5A1FB02C6E1FB6356B2EB152263F105
:1022F0000003B2EB066273EB1623A0FB06C7A1FB3B
:1023000005C8E1FB66784FF05535A7FB05C65FF0C1
:10231000000CE8FB056C16EB0C064CF1000C12EB04
:10232000963243F1000312EB8C4243EB9C3358FB93
:1023300011F55FF0333755FB11F656FB17F8A5EB97
:10234000581756FB11F5C2F6802656FB15F507EB1C
:102350001537B2EB472063EBD751C4F58064A4F185
:102360001504FFF78CFDBDE8F081B0FA80F410FA97
:1023700004F1A0FB01234FF00000B0EB132061F14A
:102380000001C4F58064A4F13504FFF778FDBDE8D1
:10239000F081890451EA90318004404261EB4101AF
:1023A000B1FA81F4202C4ED2013C0125A540A0FBBE
:1023B000052301FB0533A0FB03C5A1FB02C6E1FB1E
:1023C000635612EB152243F1000312EB066253EB46
:1023D0001623A0FB06C7A1FB05C8E1FB66784FF0FA
:1023E0005535A7FB05C65FF0000CE8FB056C16EB46
:1023F0000C064CF1000C12EB963243F1000312EB89
:102400008C4243EB9C3358FB11F55FF0333755FB9F
:1024100011F656FB17F805EB581756FB11F5C2F6E7
:10242000802656FB15F507EB153712EB472043EBDB
:10243000D751C4F58064A4F11504FFF720FD41F0E5
:102440000041BDE8F081B0FA80F410FA04F1A0FB7D
:1024500001234FEA1320C4F58064A4F13504FFF78B
:102460000EFD91F00041BDE8F0815FEA410CBFF440
:102470000DAF5FEA5C5C3FF409AFACF2FF3CBCF52A
:10248000806F3FF409AF012262F31F512DE9F04143
:10249000BCEBEC7F3FF40DAF0C0C4E4D05EBC405CF
:1024A00095E80C0002F03F0505F14005A5FB00068C
:1024B00005FB01616FEAE14404F01F04464D05EBA2
:1024C000C40560CD521943EB060304F58074A4FBE8
:1024D000000604FB01667FEA26643FF4E3AE3F4D4D
:1024E00005EBC40522CD521843EB050341F201056B
:1024F00005EB44046404A4FB0050C4EBC401E4FBFA
:10250000060180EAE17481EAE175A5FB0567A4FB99
:1025100005487F084FEA360616EB080647F1000724
:102520008C0254EA905444F10004801B61EB0701D3
:1025300054FB14F555FB14F655FB15F74FF05534C5
:1025400056FB14F6B6EB173610EB860041EBA6717E
:10255000101A63EB0101224A24CA1CF1010C0BDDA5
:10256000A2FB0C230024E5FB0C34121A8B4164F10E
:1025700000045FF080410CE0DCF1000CA2FB0C23B6
:102580000024E5FB0C3482184B4144F100045FF059
:1025900040414CB91C0013000022B1F100711CB97C
:1025A0001C000023B1F10071B4FA84F5A5F11D06F9
:1025B000A1EB0651AC4013FA05F0C5F12005EB4044
:1025C0001C43EA401043C00A50EB445041EBD42175
:1025D000BDE8F08138200010A81F0010382000103E
:1025E000382100100022002950DA404261EB4101FD
:1025F000C9B1B1FA81F30B3B17D4D3F1200C30FAF7
:102600000CFC9840994051EA0C011A44524202F2E3
:10261000324201EB025141F0004140F2FE739A4216
:1026200038BF704721E011467EE003F1210310FA24
:1026300003FCA3F1010301FA03FCC3F1200320FA18
:1026400003F021FA03F140EA0C00A3EB020202F2CC
:10265000324214D050F1000041EB025141F00041F0
:1026600040F2FE739A4238BF70474FF00001A8BF96
:10267000C7F6F0714FF00000704700217047EBD3B0
:1026800050F1000020F00100E6E70022B9B1B1FAF4
:1026900081F30B3B16D4D3F1200C30FA0CFC98409C
:1026A000994051EA0C011A44524202F2324201EBC3
:1026B000025140F2FE739A4238BF704720E0114643
:1026C00000F066B803F1210310FA03FCA3F1010343
:1026D00001FA03FCC3F1200320FA03F021FA03F10D
:1026E00040EA0C00A3EB020202F2324212D050F197
:1026F000000041EB025140F2FE739A4238BF70472E
:102700004FF00001A8BFC7F6F0714FF0000070470E
:1027100000217047EDD350F1000020F00100E8E700
:10272000002880F235804042B0FA80F30B3B11D490
:10273000984001EB0302524202F2124200EB0251B6
:1027400041F000414FF0000040F2FE739A4238BF62
:10275000704713E0C3F1000330FA03FCC3F1200219
:102760009040A3EB010202F212420CEB025141F045
:10277000004140F2FE739A4238BF70474FF000416B
:10278000A8BFCFF6F0714FF00000704700217047EE
:1027900060B3B0FA80F30B3B0FD4984001EB030217
:1027A000524202F2124200EB02514FF0000040F29E
:1027B000FE739A4238BF704710E05B4230FA03FC68
:1027C000C3F120029040A3EB010202F212420CEB93
:1027D000025140F2FE739A4238BF70474FF0000139
:1027E000A8BFC7F6F0714FF0000070470021704796
:1027F0000022A2F232425FEA215CACF10103A1EBBC
:1028000003515B0513F5800F32D212EB535210D4F3
:102810000B2A36DA9140D2F1200330FA03F3194340
:102820009040BCF1000FA8BF7047404261EB4101EE
:10283000704720320EDD01FA02F3D2F12002D140BE
:10284000D0401843BCF1000FA8BF7047404261EB75
:1028500041017047524282F3050231FA02F0002131
:10286000BCF1000FA8BF7047404261EB41017047C7
:1028700002D000200021704750EA013118BF4FF00C
:10288000000C6FF0004101EBDC716FEAEC707047F7
:102890002DE9F04101292DED028B08EE100A50D0F0
:1028A00001EBD1756D10012D0C463CD00E46002970
:1028B000B8BFCE1CB610012E4ED00F460029B8BFAF
:1028C000CF1DFF10012F44D088460029B8BF01F169
:1028D0000F084FEA2818B8F1010F40D0A1F12003EA
:1028E0001F2B3FD90021FFF7D3FF07EE900A67EEB9
:1028F000A77A18F0010F67EEA77A01D067EE887A01
:10290000F80767EEA77A01D567EE887AF10767EED8
:10291000A77A01D567EE887AEA0767EEA77A04D529
:1029200067EE887A01E0F0EE487AE30767EEA77A6F
:1029300001D567EE887ABDEC028B17EE900ABDE8F0
:10294000F081F0EE487ABDEC028B17EE900ABDE8FC
:10295000F081F0EE487AD9E7F0EE487ADCE7F0EE65
:10296000487ACDE7F0EE487AC3E700BF021E38B5DB
:102970000C4618DAC1F3C7537F3B084610D4D3F195
:1029800017030DD44FF0010C0CFA03FC0CF1FF3CC3
:102990001CEA010F04D1172B24D0D840C30721D43F
:1029A00002F10042104607EE904AFDEEE77A12F07F
:1029B000FF4317EE901A1DD0B3F1FF4F1AD0C2F3A8
:1029C0001603BBB9D20D7F3A01F3080101FB02F3F4
:1029D00003F17F02002A37DDFE2A37DCDB0503F135
:1029E0007E5038BD214602F10040FFF7BFFF00F1E5
:1029F000004038BD91B101F12003402B11D80029CE
:102A000008DA07EE100AF7EE007AC7EE877A17EEBB
:102A1000900A4942BDE83840FFF73ABF4FF07E5078
:102A200038BD24F0A5FFFFF720FD02460D462046E5
:102A3000144624F09DFF22462B46FFF7E1F8FFF7EE
:102A400096FBFFF751F938BD002038BD4FF0FF402D
:102A500038BD00BFC0F3C7536BB1FF2B0BD00B4485
:102A6000002B09DDFE2B04DD00F0004242F0FF40A8
:102A7000704700EBC150704700F00040704700BF46
:102A8000C0F3C7530246A3B17F3B0CD4C3F1170375
:102A9000002B0DDD01209840431ED10F01FB0322C6
:102AA000404210407047002801DA03487047002078
:102AB000704700F000407047000080BFC0F3C7536C
:102AC0000246C3B17F3B0ED4C3F11703002B11DDC7
:102AD0000120002A00FA03F0A4BF00F1FF33D2184E
:102AE000404210407047002802DA4FF00040704723
:102AF0004FF07E50704700F00040704708B5B7EEC9
:102B0000007A2DED028B08EE100A77EE487A38EE47
:102B1000077A67EE877A17EE903A13F0FF4F01D0ED
:102B2000002B10DBF5EE407AF1EE10FA10D4B1EE86
:102B3000E77A18EE100ABDEC028BBDE8084017EEEC
:102B4000101A00F08DBE4FF0FF40BDEC028B08BDA7
:102B500017EE900A24F05CFF07EE100AE9E700BFC9
:102B600008B5B7EE007A2DED028B08EE100A77EE6D
:102B7000487A38EE077A67EE877A17EE903A13F0C4
:102B8000FF4F01D0002B10DBF5EE407AF1EE10FA8A
:102B900010D4B1EEE77A18EE101ABDEC028BBDE846
:102BA000084017EE100A00F05BBE4FF0FF40BDEC8E
:102BB000028B08BD17EE900A24F02AFF07EE100AD8
:102BC000E9E700BF10B52DED028B044600F0B4FA22
:102BD000034604F1004008EE103A00F0ADFA07EEAB
:102BE000900A78EE677A17EE900AC0F3C75343B1A4
:102BF000FF2B06D00246012B0CBF00F00040A2F5CF
:102C00000000BDEC028B10BD10B52DED028B04460B
:102C100000F092FA034604F1004008EE103A00F08A
:102C20008BFA07EE900A78EE277A17EE900AC0F337
:102C3000C75343B1FF2B06D00246012B0CBF00F057
:102C40000040A2F50000BDEC028B10BDC0F3C752DE
:102C5000822A08B509D9F7EE007ABFEE007A00287B
:102C600027FE877A17EE100A08BD0AB100F50000AA
:102C700000F062FAB7EE007A07EE900A77EEC76AC4
:102C800077EE877A86EEA77A17EE100A08BD00BFA6
:102C900008B500F001FBDFED047A07EE100A67EEDD
:102CA000277A17EE900A08BD3BAAB83F08B500F096
:102CB000F3FADFED047A07EE100A67EE277A17EED3
:102CC000900A08BDD95BDE3EB7EE007A07EE900AA7
:102CD000F4EE477AF1EE10FA32D011F0FF4238B537
:102CE0000C460B4629D0FFEE006AF4EE667AF1EE50
:102CF00010FA26D1B2F1FF4F1FD040F27F10574992
:102D0000E20DFF2A60D040F2FF1C624558D012F05D
:102D1000FF020BD07F3A5BD4C2F11702002A05DD17
:102D2000012000FA02F2013A1A4251D12146BDE8CF
:102D3000384017EE900AFFF719BE17EE100A38BD9B
:102D4000704710F0FF4F01461AD1002C4FEAD452C1
:102D50001DDB7F3A19D4D2F1170216D4012191401C
:102D60000139214211D1172AE9D09FED3D7A24FA89
:102D700002F212F0010F47FE277A17EE900A38BDD3
:102D8000C00DFF283BD1002C0CDA002038BDD2B298
:102D90007F3A07D4D2F1170204D4012090400138C1
:102DA000204202D04FF0FF4038BD172A03D024FA4A
:102DB00002F2D007F6D501F0004040F0FF4038BDE8
:102DC000C0B27E28EED9E0E7C0B27E28DDD9E9E7BF
:102DD0000029E7DB17EE900A24F0CAFDFFF745FB58
:102DE00002460D462046144624F0C2FD22462B46DC
:102DF000FEF706FFFFF7BBF9FEF776FF38BD40F29E
:102E0000FF15A8424FEAD4527FF47BAF002C11DBB0
:102E10007F3AC7D4D2F11702C4D4012191400139BD
:102E20002142BFD1172A03D024FA02F2D207B9D522
:102E30000C4838BDD2B27F3AA7D4D2F11702A4D43D
:102E400001219140013921429FD1172A03D024FA50
:102E500002F2D30799D54FF0004038BD000080BF83
:102E600000000000000080FFC0F3C752FF2A30B509
:102E7000C1F3C7543AD0CCB3C50F12B9CDBB0020B3
:102E800030BDA242FCDBC0F31600C1F31601121BD9
:102E900040F4000041F400012ED04FF0FF3ECB1172
:102EA000BEFBF3FE0C2A9446A8BF4FF00C0C431255
:102EB0000EFB03F300FA0CF0A2EB0C02CCF11D0C9C
:102EC00043FA0CF301335B10002A01FB1300E9DC29
:102ED000814214DC401A814200DC401A05B14042B4
:102EE000C4F19601BDE8304000F058B84FF0FF4003
:102EF00030BD4FF0004030BD8842EFDBEDE70028E9
:102F0000ECDA401848BF4018E8E700BF002200296B
:102F100080F2A980404261EB4101B1B3B1FA81F383
:102F2000083B16D4994010FA03FCC3F1200320FAA1
:102F300003F040EA0100A2EB0302C2F195021CEB90
:102F40000C0C40EBC25040F0004020D0FE2A16D2BC
:102F5000704703F1210311FA03FC5CEA000CC3F192
:102F6000210321FA03F0A3EB020202F1B50240EBC8
:102F7000C25040F000400AD0FE2A38BF70474FF0E0
:102F80000040A8BFCFF68070704711460AE028BF06
:102F900020F00100FE2A38BF7047F0E7002880F2D9
:102FA00033804042B0FA80F3083B0CD4984001EBE8
:102FB0000302C2F1950200EBC25040F00040FE2A2D
:102FC00038BF704713E003F1210310FA03FCC3F18B
:102FD000210320FA03F0A3EB010202F1950240EB7A
:102FE000C25040F0004008D0FE2A38BF70474FF072
:102FF0000040A8BF40F0FF40704728BF20F001000C
:10300000FE2A38BF7047F2E720B3B0FA80F3083BDE
:103010000AD4984001EB0302C2F1950200EBC250C2
:10302000FE2A38BF704711E003F1210310FA03FCB8
:10303000C3F1210320FA03F0A3EB010202F1950290
:1030400040EBC25007D0FE2A38BF7047ACBF4FF0EC
:10305000FF400020704728BF20F00100FE2A38BF43
:103060007047F3E7002289B3B1FA81F3083B14D427
:10307000994010FA03FCC3F1200320FA03F040EA60
:103080000100A2EB0302C2F195021CEB0C0C40EB19
:10309000C2501ED0FE2A14D2704703F1210311FA48
:1030A00003FC5CEA000CC3F1210321FA03F0A3EB5B
:1030B000020202F1B50240EBC2500AD0FE2A38BF2C
:1030C0007047ACBF4FF0FF40002070471146FFF73C
:1030D0009BBF28BF20F00100FE2A38BF7047F0E7F1
:1030E000000000000000000000000000DB60BE28BF
:1030F0004A059193F4D5097F70374D7D66A5D83682
:1031000010E4104FAFF224024B1102EB830201F0E6
:103110001F034FF001049C40A4FB0034D568A5FBBD
:103120000456956805FB0466E5FB0356556805FBE8
:103130000366704700000000C11545D4852932DAC6
:10314000012262F3DF507E392AD400FA01F041F601
:103150009553C5F6554380FB03012BA292EC034A1D
:10316000820D61F39A2200EE102ABBEEC00A60EED7
:10317000000AC1F3444220EE042A26A320EE201ABE
:1031800053F8222000EEA42A891501EE052A02EB4D
:10319000C15200EE102A00EE020A10EE100A70472B
:1031A0004942C840D3E747F21822C4F2B122904204
:1031B000C6D3B0F1FF4F02D950F48000704740F2FF
:1031C0000000C7F68070704711F17B0F0CDA012206
:1031D00062F3DF50823105D54942C84040F100001A
:1031E0004042B4E78840FBE74AF64F42CCF2AE22B9
:1031F0009042ECD910F5000F02D950F480007047CE
:103200004FF00000704700BF1872313FF0FD753E6F
:103210004758633D0000803F87CD823FC3AA853F6A
:103220000F98883FC2958B3F3AA48E3FD3C3913FFE
:10323000F0F4943FF037983F3A8D9B3F32F59E3F34
:103240004370A23FD7FEA53F5BA1A93F3F58AD3FCA
:10325000F623B13FF304B53FAFFBB83FA408BD3F31
:103260004D2CC13F2A67C53FBEB9C93F8C24CE3F14
:103270001EA8D23FFD44D73FB8FBDB3FDFCCE03F89
:1032800007B9E53FC7C0EA3FBAE4EF3F7D25F53F08
:10329000B383FA3F00000000B0F1FF4F3ED2C115EA
:1032A0003ED04FF0010262F3DF5038BF400026A34A
:1032B00093EC034AAFF21C0303EB104323F0070324
:1032C000D3E9002300FB02F040EC103AFAEEC00A0A
:1032D00020EEA01A61F17E0160EE811AC90521EE8F
:1032E000012A40F6FC3221EE041AC5F6B90261EE5D
:1032F000A41A51FB12F122EE052A03EE901A71EE88
:10330000C21AFAEEC53A31EE611A70EEC10A30EE19
:10331000200A30EE230A10EE100A704705DC0BD0AD
:1033200010F1FF4F09D310F5000F40F4800003D8CF
:1033300040F20000CFF6C070704740F20000CFF6B8
:1033400080707047AFF300800000003FABAAAA3E38
:103350000000803E000000005501000001CB92BE3D
:1033600048010000C3C87DBE3B010000685F54BE39
:103370002F010000C7992CBE250100002C3C0ABE7D
:103380001A0100002F1AC6BD11010000C2AC83BD96
:1033900008010000D814FCBC00010000000000007F
:1033A000F8000000EC0A023DF10000008E51773D6C
:1033B000EA0000009806B83DE40000003B39ED3D0E
:1033C000DD000000088B163ED800000003FA2D3EF9
:1033D000D2000000D7D24A3ECD000000DE7F633E1F
:1033E000C8000000E3C87C3EC3000000E65A8B3EE4
:1033F000BF00000084F7953EBA0000006E8CA33E2B
:10340000B6000000EFADAE3EB2000000C40EBA3E02
:10341000AE000000CDB1C53EAB0000005F99CE3ECE
:10342000410201D150F0004050F480007047F0B5E7
:10343000012363F3DF50C1F109014FF07E07FFF76D
:1034400061FEB30F53F100039C44B6EB8376B200E8
:1034500028BF5242B2F1805F0BD20231FFF752FE19
:1034600096EA260242F10002B2F1805F01D2023FE9
:10347000F3D50A4CA2FB0424B4FA84F29440240A43
:10348000A7EB020244EBC250C10DD1F17F01F60F50
:1034900000EBC673BDE8F04073E00000A2DA0FC98C
:1034A00011F1800FBCD030EACC7248BF0CF1020C95
:1034B00020F0004000EE100A0DA2F2EC032A22EEEA
:1034C000802A11F1080FB9FE422AB0DDA2EE630A8C
:1034D000A2EE430A10EE103AFDEEC21AC3F3C75231
:1034E000782AA4D3D2F17F0111EE902A944448E0C7
:1034F00083F9223F7A7795B60010C93F07B5C0F32C
:10350000C751FF2925D000F032F8BDE80640CEF8BB
:1035100000000ED2C9438CEAD17C63EEA02AE1EE12
:10352000032A73EE622A12EE900A80EACC701060D1
:1035300000BD8CEAD17C21EE232AA3EE602A8CEA1E
:10354000D37133EEC22A12EE100A80EAC170106005
:1035500000BD4102BDE80E4001D150F0004050F4E2
:1035600080001060186070475FF0000C01E05FF0B1
:10357000010CC0F3C751A1B3D1F17F0190D920EA6A
:10358000CC7323F0004000EE100AC0F384402030DA
:1035900030FA01F1834A51F10001B2EC024A02EB28
:1035A000810202EBC102D2EC032A70EE620A20EE25
:1035B000A01A5FEA5C0C61EE201A15D221EE041A03
:1035C00061EEA41A70EEE10A21EE232AA3EE602A2E
:1035D0008CEAD37133EEC22A12EE100A80EAC1706F
:1035E000704700F00040C7E761EEA41A70EEE10AF0
:1035F00021EE041A63EEA02AE1EE032A73EE622A9A
:1036000012EE900A80EACC70704700BFAFF30080E2
:10361000C1FEFF3E25AA2A3E000000000000803FB8
:103620000000000061C9FC3CCDE07F3F1CBFFC3CBA
:103630007605813DFE7D7F3F9EEF803D090CBF3DBD
:103640000FE37E3F22C5BE3DB624FF3D14047E3FFE
:10365000E27BFE3D13071F3E48EB7C3FA0631E3E0E
:103660006D30403E1D817B3F15103F3EA2AD603E58
:10367000CFDC793F3EE15E3E7B0D803EFA08783F2D
:1036800096717D3E6E988F3E65FF753F68B88D3EA2
:10369000F4E19F3E939E733FFD4B9D3EC654B03E6A
:1036A000AEF7703FB3DDAC3EC589BF3E604B6E3FA9
:1036B0000A1ABB3E26C4CF3ECA356B3F631CCA3EC6
:1036C000F254E03E66D1673F0739D93EDDF0EF3E68
:1036D0004B66643F1641E73E312B003F8894603FC4
:1036E0000FC3F53E07E4073FA2C55C3F2B99013F9E
:1036F000C51F103F8F7D583F65A1083F8AF6173FD1
:10370000B534543FCA310F3FE2FF1F3F599B4F3F33
:10371000D7C8153F4606283F6BCF4A3FC4371C3FEA
:103720004130303FE0B9453FE49A223FA71D383F82
:10373000CA98403F20A6283F2FC73F3FAC763B3F6B
:103740004A562E3FDB13483FCCB6353F6B52343FD1
:1037500079C74F3F2F35303FD0B4393F52DD573F07
:1037600070412A3F912D3F3F26CE5F3F9F3E243F31
:10377000C35D443FF125683F50C21D3F1C9D493F3A
:10378000E13B703F4150173FBF7E4E3F7810783F7E
:1037900071ED103FAF06533FD4F47F3FA75A0A3F65
:1037A0009B64573F1036001001B5C0F3C751FF2985
:1037B00021D0FFF7DCFE00990ED263EEA02AE1EEE5
:1037C000032A594073EE622A82EE820A10EE100A32
:1037D00058BF80F0004002BD21EE232AA3EE602AEC
:1037E000594033EEC22A82EE220A10EE100A48BF78
:1037F00080F0004002BD410201D150F0004050F481
:10380000800008BD51F48000704703D1B3F1FF4F31
:103810003CD106E050F480007047FBD1B3F1FF4F7C
:1038200049D1013801391BE003F00043B2F5000F24
:1038300002D20BE002F0004243EC102A80EE201A84
:103840001EE003F00043B2F5000F04D241F07E51B8
:1038500006E002F0004243EC102A80EE801A24E0D9
:1038600020F0004221F0004343EC102A9A4214D881
:1038700080EE201AB3F5000FD6D3B2F5000FD9D3DE
:10388000B3F1FF4FBED8B2F1FF4FBED200294CBFFB
:10389000DFF82CC14FF0000C11E080EE801AB3F578
:1038A000000FCED3B2F5000FD3D3B3F1FF4FA9D899
:1038B000B2F1FF4FB1D2DFF804C191F0004142A252
:1038C000F0EE411AFFEECD1A11EE903A5B0853F17B
:1038D000000302EBC302D2ED012A22EE810A71EE4F
:1038E000620AF7EE002A32EE800A32D080EE800AB9
:1038F0001268002948BF52426244002848BF524221
:10390000002A07D55242B2FA82F39A400BD0C3F58F
:10391000C07305E0B2FA82F39A4004D0C3F1800389
:10392000120A42EBC35220EE001ADFED261A21EEF6
:10393000001A90EA010F21EE211A02EE102A30EE51
:10394000410A54BF32EE000A32EE400A10EE100A6D
:10395000704780EE800A6246002848BF5242002A23
:1039600007D55242B2FA82F39A400BD0C3F5C07326
:1039700005E0B2FA82F39A4004D0C3F18003120A40
:1039800042EBC35220EE001ADFED0E1A21EE001AB0
:1039900090EA010F21EE211A02EE102A30EE410AC0
:1039A00054BF32EE000A32EE400A10EE100A10F058
:1039B000FF4F18BF704700F000407047A9F6433230
:1039C00051ED8764ABAAAA3E000000000000000091
:1039D00023EEFF00BB01003DDC88FE012A997F3DFC
:1039E000700AFE020312C03D28D2FA036803003EAB
:1039F00070ABF504EAFD1F3EF856ED05DCDD3F3EF9
:103A0000A0CFE4062514603EE0D3D8075D21803EB8
:103A10006004C608A500903E7067B2099214A03EEB
:103A2000506D990A7713B03E106D7A0BA0F4BF3E2B
:103A3000E03C590C9F01D03ED0EB330DBC1BE03E67
:103A4000B07A080EBD1FF03E8061D50E98EFFF3EA4
:103A500080DEA10FBF0E083F009D631031EC0F3FC9
:103A6000E0902611FD0C183FC014E0116500203FC6
:103A7000E0519612BE08283F00D446137D0A303F1D
:103A8000C0C7EF132FEE373F60899814320C403FC8
:103A9000C0A8371542EF473F60CCD41530F64F3FF2
:103AA00080F26E163415583FC075FF161EEF5F3F4B
:103AB000A01691174D18683FA05A1B182217703F87
:103AC0006005A1187110783F6040211951F47F3FC3
:103AD00010B5044619F0DEF928B10346034A234421
:103AE000934200D810BD0248FCF778FE0000082081
:103AF0004C89021010B50C4619F0A6FC28B10346FB
:103B0000034A2344934200D810BD0248FCF766FEE6
:103B1000000008204C89021019F0C4B99A4238BF3D
:103B200088547047704700BF2DE9F04F83B0994625
:103B3000DDE90DAB0F9B884611469A07074616D163
:103B4000DA453AD20C460D46ABEB0A060E44224645
:103B50004B46414620200134B847B442F7D12946AC
:103B6000BAF1000F08D1204603B0BDE8F08F0C4633
:103B7000BAF1000F10D00E4655460C9B2E449A44C5
:103B80000191721B4B46013D41461AF8010D344626
:103B9000B847002DF5D101990F9B9B07E3D5651A16
:103BA000AB45E0D922464B46414620200135B84777
:103BB0005D4504F10104F5D3D5E70C46BAF1000FD9
:103BC000D9D1D0E72DE9F04F0F9FDDF8248017F011
:103BD000020F0A9C9DF82CA00E9DDDE90C9644D1A5
:103BE000F5BBB44241D207F0010B04F1FF3C4FF0AA
:103BF000300EC44404E00134A6420CF801EF01D9B0
:103C0000202CF8D1BBF1000F00F08880A5422CD900
:103C100004F1FF3C4FF0300EC44404E00134AC42E8
:103C20000CF801EF21D0202CF8D117F0100F0ED096
:103C300017F4806F54D1A64263D0A54261D0B9F188
:103C4000100F50D0B9F1020F56D0202C29D12024CA
:103C5000CDE90B57CDE90984BDE8F04FFFF764BF0C
:103C600017F0010B34D1B442BFD317F0100F1ED0A0
:103C700017F4806FE3D1002CDDD1B9F1100F63D0C0
:103C8000B9F1020F77D0302488F800400124BAF14E
:103C9000000F11D17E0748D52B2608F804600134A7
:103CA000D6E7264601344FF0300C08F806C0202C29
:103CB000CDD0BAF1000FEDD02D2608F80460013404
:103CC000CDE90B57CDE90984BDE8F04FFFF72CBFD4
:103CD000BAF1000F30D0B44205F1FF3585D395E736
:103CE000B9F1100FB3D1BE063BD5202CAFD058266A
:103CF00008F804600134A8E7202CA8D02646013437
:103D000007E0661EB9D0B9F1100F36D0B9F1020F35
:103D1000C9D14FF0620C08F806C096E717F0100FF3
:103D2000C5D017F4806F86D089E73E0790D520264E
:103D300008F8046001348BE717F00C0F00D0013D48
:103D4000B442FFF452AF61E7BC0612D4782488F87D
:103D50000040302488F801400224BAF1000F99D0C5
:103D6000AAE7202C3FF473AF782608F804600134EA
:103D70006BE75824EBE76224E9E717F0200FA4F182
:103D8000020C04D04FF0580E08F80CE08BE74FF00F
:103D9000780E08F80CE086E700B9704701F02ABDFC
:103DA00010B1D1E900311847704700BF0000000092
:103DB0002DE9F04F97B09DED207BDDE9225B0746B2
:103DC000884651EC170B249C99460C920B460246F0
:103DD0008DED047B0794FDF7DDFF002840F0F481B2
:103DE000DDE904014FF0FF326FF48013FDF7F6FFB9
:103DF000002840F01B81DDE904014FF0FF32AC4B9D
:103E0000FEF728F8002840F0EE80DDE90401A4A3C5
:103E1000D3E90023FEF71EF8002840F0D380DDE947
:103E20000401A1A3D3E90023FDF7D8FF002840F047
:103E3000C980DDE9040100220023FDF7CFFF00283F
:103E400040F0E88023460D9013F4806F08BF0625EC
:103E500030212B460EAAA5F1200605E0013BB34216
:103E600002F8011B00F09381092BF7D81E46ED1ACA
:103E7000DDE90401FDF76AFF8E4B044603EBC60340
:103E800093ED007B8DED087BFDF73CFF02460B4672
:103E9000DDE90401FDF7A0FEDDE90823FDF7B0FE32
:103EA00002460B46CDE90A23FDF762FF8246FDF785
:103EB0003BFF02460B46DDE90A01FDF78DFE024697
:103EC0000B46CDE90A2300227B4BFDF7C3FF0028F8
:103ED00000F0FE800AF1010A5046FDF725FF024678
:103EE0000B46DDE90801FDF78DFF10B14FF0000A28
:103EF0000134002E00F0FD80681E0EABDFF8CCC14F
:103F000018440FE0ACFB0A21C90801EB8102AAEBBF
:103F100042023032BAF1090F00F8012F40F21C8141
:103F20008A461D46202D05F1010306F1FF36E9D131
:103F30002025691E0EAB6148194410E080FB046225
:103F4000C3EBA20303EB8302A4EB420404F13002AF
:103F500001351C4601F8012F002B00F0EB80202DCD
:103F60004FEAE473EAD1079B03F00303012B18D156
:103F7000BBF1000F15D00D9B002B00F00A810BF157
:103F8000FF3BBBF1200F0CD96B1E0EA930220B4456
:103F900005E001355D4503F8012F80F0D180202D2B
:103FA000F7D1079B0EACCDE902B341464B463846EC
:103FB0000C9A01950094FFF7B7FD8246504617B062
:103FC000BDE8F08F079B9DED047BCDE923B341460F
:103FD0004B4638460C9A8DED207B229517B0BDE8F4
:103FE000F04F00F045B9610723464CBF042303237B
:103FF0004146219338464B46079A48BF304CCDE99D
:1040000022B258BF2F4C0C9A209417B0BDE8F04F45
:10401000FFF78ABDDDE9042300200021FDF7DCFD68
:104020000123CDE904010D9323460DE723469C07A8
:1040300040F0AA80BBF1040F40F2A6800C9B1D4605
:104040001C1F04EB0B0A2A464B4641462020013533
:10405000B847AA45F7D155461B4C261F14F8010D49
:104060002A464B464146B847B44205F10105F5D111
:10407000079B0AF1040A9807A0D50C9CAAEB04033D
:104080009B459BD952464B46414620200AF1010AE6
:10409000B847AAEB04035B45F4D38FE7AFF3008086
:1040A0000000000065CDCD410000000065CDCDC110
:1040B000FFFFEF7F609302100000E03F67666666D7
:1040C00098890210A0890210AC890210CDCCCCCC0A
:1040D0000022DDE90A01634BFDF780FE00287FF432
:1040E00008AFBAF1000F6AD10AF1010A002E7FF47D
:1040F00003AF2046FDF706FE02460B46DDE904014C
:10410000FDF76AFD02460B46CDE904230022554B1C
:10411000FDF764FE00287FF40CAFDDE90401002206
:10412000504BFDF797FE00287FF403AF013424F0D5
:104130000104FEE6079B03F00303012B00F08280DD
:10414000202D3FF42EAF0D9B7BB32D220DEB0503ED
:1041500083F83820013524E7202B3FF4E9AE0EAA7E
:1041600015441E44302204E0202B05F8012F3FF4B3
:10417000DFAE9E4203F10103F6D12E220DEB0603C2
:1041800083F83820751CD4E6DDF830A063E72025DD
:104190006EE6079B13F00C0F50D00BF1FF3BAB45C5
:1041A0003FF6F2AE202D3FF4FCAE079B5A0701D537
:1041B0002B22CBE71B077FF5F4AE2022C6E71AF0CF
:1041C000010F3FF496AE8FE7A60734D1BBF1030F82
:1041D00031D90C9B1D46DC1E04EB0B0A2A464B46CC
:1041E000414620200135B8475545F7D155461E4C6C
:1041F000E61E14F8010D2A464B464146B847A64232
:1042000005F10105F5D1079B0AF1030A9D077FF52A
:10421000D5AE0C9CAAEB04039B457FF6CFAE52466D
:104220004B46414620200AF1010AB847AAEB040395
:104230009B45F4D8C2E6DDF830A0D7E7AB453FF6A2
:10424000A3AEAEE6BBF1000F3FF47AAF0D9B002B9F
:104250009FD00BF1FF3B5D45FFF496AE202D7FF420
:1042600074AF9EE60000E03FA78902100000000046
:104270002DE9F04F9FB02A9EDDE928450746934679
:104280000891099322462B46204629460E96DDE9E1
:104290002BA6FDF77FFD002840F0BE802046294672
:1042A0004FF0FF32784BFDF7D5FD002840F0B48089
:1042B000204629464FF0FF326FF48013FDF78EFD44
:1042C000002840F0A9802046294600220023FDF75F
:1042D00085FD002840F0D581CDE90A45DDE90A23B6
:1042E0009046994606F4006216F480630F92139389
:1042F00040F0A18058EA090340F0CA80002A40F04B
:10430000E38106230E9316F00202109240F0D4814E
:104310005346042B38BF04230C920422043B129210
:104320000F932046294600220023FDF757FD002861
:1043300040F0F3819DED0A7B0F9B5A4603930E9B41
:104340008DED007B029326F4006304933846099BAD
:104350000899FFF72DFD024616F0200F099B0899DA
:104360000CBF6520452002F10108B8470C9A129B4A
:1043700016AC5D1E82EAE273A3EBE273D10F002656
:1043800022469946DFF804C101E0202E10D0CE4627
:10439000ACFB0930C00800EB8003A9EB43033033CA
:1043A000BEF1090F814606F1010602F8013BECD887
:1043B0000523002006930A2305950094099D089C77
:1043C0004246CDE90330CDE901612B46214638460E
:1043D000FFF7F8FB109A8046D2B1A0EB0B06B2456E
:1043E00016D90BEB06022B46214620200136B84792
:1043F000B245F6D80BF1FF335344CBF10102A3EBE6
:1044000008034244924538BF002308F1010898444C
:1044100040461FB0BDE8F08F5A463846CDE92845E2
:10442000CDE92BA60E9C099B08992A941FB0BDE8E4
:10443000F04FFFF7BDBC58EA09032BD1002A3FF427
:1044400062AF00230C930E9B0C9A934200F3B98148
:104450004FF000082046294600220023FDF7BEFC4D
:10446000002840F013819DED0A7B26F4006646F497
:1044700080668DED287B5A463846CDE92A8A099B0D
:1044800008992C96D2E700BFFFFFEF7FCDCCCCCCB4
:1044900006230E93C9F30A50A0F2FF30FDF732FC59
:1044A000C1A3D3E90023FDF7ABFBC1A3D3E90023EC
:1044B000FDF77EFBC9F31309CDE90C0149F07F51EB
:1044C00040460022B24B41F44011FDF785FBA4A306
:1044D000D3E90023FDF794FB02460B46DDE90C010E
:1044E000FDF766FBFDF732FC0C90FDF70BFC9EA37D
:1044F000D3E9002380468946FDF782FB0022A54BC5
:10450000FDF756FBFDF722FC034649464046129351
:1045100097A3D3E90023FDF773FB804612988946E1
:10452000FDF7F0FB94A3D3E90023FDF769FB0246F6
:104530000B4640464946FDF74FFB02460B46804678
:104540008946FDF75DFB42464B46CDE910014046EA
:104550004946FDF72DFB0022CDE91401DDE91001EC
:104560008D4BFDF773FB00228C4BFDF721FB0246C0
:104570000B46DDE91001FDF769FB0022884BFDF7D2
:1045800017FB02460B46DDE91001FDF75FFB4246D3
:104590004B468046894600204FF08041FDF71CFBCA
:1045A00002460B4640464946FDF702FB02460B46D3
:1045B000DDE91401FDF74AFB00227A4BFDF7F8FA1A
:1045C000129B002203F2FF3C4FEA0C53FDF718FB4D
:1045D00080468946DDE90A0142464B46FDF7FEFB6F
:1045E00050B10C9B4046013B49460C9300226B4B5B
:1045F000FDF72CFB804689460C9A43466332C62A57
:1046000006F00202109249460F9A2CD8002A5ED07A
:10461000042212920B433FF416AFDDE90A0158A3BE
:10462000D3E90023FDF702FC48B1DDE90A0156A3F6
:10463000D3E90023FDF7D2FB00287FF404AF0E9BE3
:10464000002B50D0139A002A7DD0013B0E93129B71
:104650009A4505D9109B002B00F0AE8002231093E1
:1046600000230F9344E022BBBAF1050F4FD906F0A7
:104670000203002B49D105231293AAF105030F93DE
:104680003AE005F100430A940B9327E626F400660E
:1046900046F4806638462C96DDE90A67344607F111
:1046A00000455A46CDE92A8ACDE92845099B089953
:1046B000BCE605221292ADE700230222CDE90F32BB
:1046C00004220C9312922CE64FF00508C2E6BAF1D0
:1046D000040F1FD9109B002B78D104231293AAF149
:1046E00004030F9304E0129B9A4531D80E9B0F935D
:1046F0000C9B002B3FF415AEDDE90A0142464B4608
:10470000FDF7A4FACDE90A010BE602231093052375
:104710001293F1E704231293EAE7DDE90A45A04684
:104720000F9B05F1004903930E9B5A46029326F412
:10473000006304933846CDE90089099B0899FFF787
:1047400037FB024608E6129B9A4544D80F92CFE702
:10475000109B8BB30E9B0F9302231093C8E700BFEF
:1047600061436F63A787D23F71A379094F930A40D2
:104770001655B5BBB16B0240EF39FAFE422EE63F4B
:104780002D431CEBE2361A3F0000000080842E41CE
:104790000000F83F0000E03F00002C4000002440F3
:1047A000000018400000F03FFB799F501344D33FB6
:1047B000B3C8608B288AC63F129BAAEB03030F93F2
:1047C00096E7A3EB020808F1FF3843E604231293AF
:1047D000022310938CE7109B002BEDD002230F9245
:1047E000109385E72DE9F04F9BB0249CCF4D0A94A0
:1047F000CF4CB1F1000A18BF834625601878CD4C24
:10480000914608BFA3460993002800F007834FF0A4
:1048100000080AE042464B46514608F10108D847D5
:10482000099B1878002800F04381099B252803F193
:1048300001030993EED11C460023224612F8010B16
:10484000A0F12001102925D801A555F821F000BFBD
:104850002D4900109548001095480010254900107A
:104860009548001095480010954800109548001094
:104870009548001095480010954800101D490010FB
:1048800095480010154900109548001095480010F3
:104890000D490010A0F130010929099440F2E4808B
:1048A0002A2800F0498100252E2800F0F0800026FB
:1048B000A0F16801122942D801A757F821F000BFE2
:1048C000014C00103F490010F54B00103F4900100B
:1048D000DF4B00103F4900103F4900103F490010D6
:1048E0003F4900103F4900103F4900103F49001068
:1048F000354900103F4900103F4900103F49001062
:104900003F4900103F49001035490010144643F05C
:10491000010392E7144643F002038EE7144643F086
:1049200004038AE7144643F0100386E7144643F075
:10493000080382E70999487843F4807301326728B5
:10494000099200F2C380242840F20481A0F12502DC
:10495000422A00F2FF8001A151F822F0814C0010A0
:10496000554B0010554B0010554B0010554B001087
:10497000554B0010554B0010554B0010554B001077
:10498000554B0010554B0010554B0010554B001067
:10499000554B0010554B0010554B0010554B001057
:1049A000554B0010554B0010554B0010554B001047
:1049B000554B0010554B0010554B0010554B001037
:1049C000554B0010554B0010554B0010554B001027
:1049D000554B0010554B0010554B0010134C001058
:1049E0004F4C0010134C0010554B0010554B00104D
:1049F000554B0010554B0010554B0010554B0010F7
:104A0000554B0010554B0010554B0010554B0010E6
:104A1000554B0010554B0010554B0010554B0010D6
:104A2000554B0010554B0010594D0010554B0010C0
:104A3000554B0010554B0010554B0010554B0010B6
:104A4000554B0010554B0010554B0010554B0010A6
:104A5000594D0010914C0010594D0010134C00108E
:104A60004F4C0010134C0010002500E0013205EB04
:104A7000850500EB45051078303DA0F1300109298E
:104A8000F4D92E28099202F101027FF410AF09999E
:104A900043F4806348781146A0F13006092E40F2B5
:104AA00020812A2800F02E81099200260132FFE69B
:104AB0004446C14501D809F1FF384B4642465146AC
:104AC0000020D84720461BB0BDE8F08FA0F1690256
:104AD000D2B20F2A3ED8012149F241079140394014
:104AE00040F0F2800A2A3CD0072A33D10A9D55F8BB
:104AF000042B002A00F0128143F0210012AB1F4664
:104B00000B9303E0202900F013811A4602F00F04F2
:104B10002346092C94BF303337330F2A07F8013B63
:104B200001F101014FEA1213ECD801E1E547001051
:104B3000A8430020253B00100A99099851F8045B0E
:104B40004078002DCDE90921BCBF43F002036D423E
:104B50000132A9E642464B46514608F10108D847C2
:104B60005EE60A99002E51F8047B18BF3246387869
:104B700008BF4FF0FF32002800F07B83BC18A4462A
:104B80003A4604E012F8014F002C00F03F819445B2
:104B9000F8D16446E41B5A0540F12281B44228BF93
:104BA000344613F0020300F088820223CDE90A5153
:104BB00042461D46464408E04B465146D84717F842
:104BC000010F08F1010810B142464645F4D12B46C9
:104BD0000B990A9D002B40F041810A9120E609992A
:104BE00048786C287FF4A8AE0A46887843F440736E
:104BF0000332A4E6099943F40073487801329EE633
:104C000009994878682800F0038143F08003013255
:104C100095E6672800F0D980472800F0DC80452819
:104C200000F0DB80CDE903530A9B0296073323F0A3
:104C300007031C464246F4E802674B465146584675
:104C4000CDE900670A94FFF713FB8046E8E54628A4
:104C500008BF43F02003CDE903530A9B02960733B4
:104C600023F007031C464246F4E802674B465146D0
:104C70005846CDE900670A94FFF79AF88046CFE5D9
:104C800042464B465146252008F10108D847C7E562
:104C90000A9A990702F1040408F1010640F1C6805E
:104CA00010784B4642465146D847012D88BFA8444C
:104CB00040F2BD8132464B46514620200136D8474E
:104CC0004645F7D10A94ABE56F2800F0818040F2A9
:104CD0004882782800F090810A2723F01003BC4610
:104CE00041E0002606EB860600EB4600A0F1300608
:104CF00011F8010FA0F13002092AF3D90A460991EF
:104D00000132D5E5DDE9092151F8046B90780232D2
:104D100009920A91013226EAE676C9E523F01000ED
:104D200013F4806240F021003FF4E8AE12AB0B9325
:104D30000B9B069000930823102005930023424606
:104D4000CDE9023001914B46514658460496FEF794
:104D500039FF0A95804663E5582862D0622840F002
:104D60008F800227BC4613F4806000F0DD8023F0C2
:104D70000D0313F4007240F081810A990F1D13F4A2
:104D8000807140F037825C060A9A40F13B811278CC
:104D9000002A40F04E8123F01003002800F04981E2
:104DA000114612AA0B92CDE90553CDE903C6019134
:104DB0000B9B4246009300235146029358464B46B4
:104DC000FEF700FF0A9780462AE543F4006329E7CF
:104DD0000827BC46C7E743F4006343F0200321E7FC
:104DE00013F0020300F08E8102230A951E460D4641
:104DF00042464B465146D84717F8010F08F10108C3
:104E00000028F5D1294633460A9DE3E6D41BC2E6C5
:104E10000A46887843F0C003033290E50446804692
:104E200047E6102743F02003BC469CE7012D40F2E3
:104E3000F880464608F1FF372F4432464B4651462C
:104E400020200136D847BE42F7D10A9B3246187857
:104E500051464B46D847A8440A94E1E44646A54249
:104E60007FF6BBAEA844A8EB04080C4632464B467E
:104E7000514620200136D8474645F7D12146ACE6B9
:104E800013F4806200F0BB804FF4806223F0110CB9
:104E90001CF400770A9B4AD11CF4807003F10404CF
:104EA00040F034811CF0400F40F0A3801CF0800FD4
:104EB00000F0D381B3F9001081EAE177A7EBE17745
:104EC000BFB2CB0F002900F056813A4612A90F4617
:104ED000DFF8D8E30B910A930C9501E020280FD05E
:104EE0001546AEFB0213DB0803EB8301A2EB410185
:104EF0003031092D1A4600F1010007F8011BEDD8E9
:104F00000A9B0C9DCDE9055CCDE9010304960B9B42
:104F1000424600930A235146039358464B46FEF7F8
:104F200051FE0A9480467BE423F00C0321E707330B
:104F300023F00703194608465B6850F8081BDF0F8B
:104F40000A9051EA030062D1002A40F09F81134683
:104F5000114612AACDE90C7500201546CDE90E6860
:104F6000DFF848E30B9201E020282DD05A1842F1D7
:104F70000002AEFB027828F0030707EB9807D21B6C
:104F80001E469B1A61F100070C464FF0CC3101FB25
:104F900003F10EFB0711A3FB0E731944052307F061
:104FA0000108A8FB03389B180A2E03F130034FEACF
:104FB000570774F1000405F8013B00F1010047EACE
:104FC000C1734FEA5101CFD2DDE90C75DDE90E68FE
:104FD0000B9B424600930A23CDE9055CCDE901070E
:104FE000049603934B4651465846FEF7EBFD804628
:104FF00016E419780F4664E71027BC46B3E623F0A1
:10500000100C45E71C064CBF12881268C0E60A4621
:10501000191E01DB13469CE75242134661EB410126
:1050200097E713465146187842464B46D847B04654
:1050300048E613F0200F14BF4120612012ACA646B1
:105040000B940A93A0F10A040C9502E0202912D0D7
:105050002A46B2FBFCF50CFB1520C3B2092803F16C
:1050600030008ABF1B19C3B2DBB262450EF8013BA8
:1050700001F10101EAD20A9B0C9D94E60A9A0732DB
:1050800022F00702516852F8084B8E460A9254EA01
:10509000010276D123F01003002872D000221146BD
:1050A00012AA0B92CDE905530B9B424600930023B5
:1050B000CDE903C60191029394E7A54298BF01345C
:1050C0007FF674AD4FF48063CDE90A7505EB0802F5
:1050D0001F460D46141B42464B465146202008F100
:1050E0000108D847A045F6D13B460A9F29463878A3
:1050F0000B9D6C1C00283FF470AD002B3FF475AE87
:10510000002353E5A542DFD801346EE61968CB0FC2
:10511000002900F0A88081EAE172A2EBE17212A9F5
:105120000846DFF888E10B910A930C9501E0202FE7
:105130000FD01546AEFB0213DB0803EB8301A2EB95
:1051400041013031092D1A4607F1010700F8011B12
:10515000EDD80A9B0C9DCDE9055CCDE90173049661
:10516000D5E6692823F0100C40F08C8013F480629F
:105170003FF48EAE88E6002A3FF4A8AE12AA0B9246
:10518000C0E613F0200F14BF41226122002012A9B3
:105190000A3ACDE90E68CDE90C35CDF844B00646A3
:1051A0008846754693460B91CDF840C003E0202E0B
:1051B00017D004460D4629463A460023204622F0E1
:1051C000E3FBD2B2092A02F1300388BF02EB0B03E2
:1051D000BC42DBB275F1000508F8013B06F101069F
:1051E000E5D23146DDE90C35DDE910CBDDF83C8058
:1051F0000E9E57E70A99096851B923F0100338B198
:1052000012A90B91CDE90553CDE903C60192CFE573
:1052100013F0200F14BF4120612012ACA6460B945E
:105220000A93A0F10A040C9502E0202A12D0294624
:10523000B1FBFCF50CFB1510C3B2092803F13000DB
:105240008ABF1B19C3B2DBB261450EF8013B02F104
:105250000102EAD20A9B0C9DD4E7196881EAE17742
:10526000A7EBE1772DE6002A3FF459AF12AA0B9283
:1052700071E713F480640DD013F0020412D00446D9
:105280004646ECE50A276346BC466CE512AB0020B7
:105290000B939DE613F002037FF4E0AD002D7FF445
:1052A00013AF9AE4002D7FF40DAF96E4CDCCCCCCB7
:1052B00084460CB410B584B006AC54F8043B0A46DE
:1052C0000094614604480394FFF78CFA04B0BDE8EB
:1052D000104002B0704700BF1D3B001070B59446EF
:1052E0001E4605460C4684B04FF0FF32634602A9C5
:1052F00000960348CDE90254FFF774FA04B070BD7C
:10530000A13D00100FB410B50E4B84B006A91C6867
:1053100051F8043B03915CB100914FF0FF3202A9B8
:105320000948A047012004B0BDE8104004B0704710
:10533000184600F0A1FA204604B0BDE8104004B0C1
:10534000704700BFA8430020993D001010B5094BDD
:1053500084B01C684CB1034600914FF0FF3203A9A2
:105360000548A047012004B010BD00F085FA204692
:1053700004B010BDA8430020993D001000BEFDE719
:10538000074A0346106838B1064903448B428CBF74
:105390004FF0FF3013607047034908461160F3E790
:1053A000A03F0020000008200C44002090B110B560
:1053B0000446FCF72FF9084AD2E90032C01A61EB23
:1053C00002010023054A22F0E7FAC4E90001A260C5
:1053D000002010BD002070473836002040420F00EA
:1053E00010B50446FCF716F942F21072002322F0C1
:1053F000CBFA0023C4E90003C4E90233184610BD08
:10540000002070474FF0FF30704700BF034608464A
:10541000114623B9034BD3E9002300F05FB94FF0E5
:10542000FF30704700930210431E012B09D810B5BE
:105430001446084601230022214600F0D9F82046F0
:1054400010BD4FF0FF3070470EB44FF0FF3003B087
:10545000704700BF4FF0FF30704700BF4FF0FF3084
:10546000704700BF4FF0FF30704700BF02288CBF6D
:1054700000200120704700BF08B5FFF77FFF00BF85
:105480009C46144600B50B460246614683B044B1C3
:10549000054D064801940095FFF734FF0120FFF702
:1054A0006DFF034D2C46F4E7B0890210C08902104D
:1054B000047B021038B5064C064DFCF76DFAAC4281
:1054C00004D254F8043B9847AC42FAD338BD00BF2D
:1054D000987A0210A47A0210036808461146184709
:1054E0002DE9F0411546427D07468846002A46D000
:1054F000002D1DDD0B780A2B23D0012D4FF0000C61
:1055000018D04646012416F8012F21460A2A04F134
:10551000010422D0A542F6D165450BDC08EB05035A
:1055200013F8013CA3F10D03B3FA83F35B093B7558
:10553000BDE8F0813B68A5EB0C0108EB0C00984737
:10554000ECE7037D002BD8D1036802210F48984770
:10555000012DE3D04FF0010CD3E716F8013C0D2BE1
:10556000D8D08C4508EB0C00A1EB0C0101DA3B68AC
:105570009847022105483B689847A446CAE7294650
:1055800040463B68BDE8F041184700BFB0930210A9
:105590000B682DE9F041802B0D46064605D05A1CBC
:1055A0002B442A601E71BDE8F0810F4B1C68A4B12A
:1055B0000E4F01F1040801E0246974B12368002B47
:1055C000FAD03B680BB1A342F6D1204641462A6887
:1055D000FFF786FF2469002CF0D1002301222B4421
:1055E0002A601E71BDE8F081903F00209C3F0020A2
:1055F0002DE9F04782B00D4691461C460646FCF761
:1056000009F84FF0FF3C6FF000472E4A821841F135
:105610000003944577EB03013CBF62463B462A48B2
:1056200022F0EEF96B1C804640D00CB3274F284B7C
:105630001C68B4B1B9F1000F1CD1DFF89C9001E0F7
:10564000246974B12368002BFAD0D9F800300BB16B
:105650009C42F5D120462A463146B8472469002CA1
:10566000F0D1B8F1000F26D1284602B0BDE8F0878E
:10567000184FDCE74FF00A0ADFF85C9002E024697B
:10568000002CEED02368002BF9D0D9F800300BB1F4
:10569000A342F4D12A4631462046B847012220468B
:1056A0000DF107018DF807A0B847E8E730461BF079
:1056B000A5FE0546B9E7044822F06AF9284602B07B
:1056C000BDE8F08740420F00B0340020E1540010E4
:1056D000903F0020D95400109C3F00202DE9F04F4E
:1056E000984607460E4683B0DFF860B0DFF860905A
:1056F000DFF860A00192DBF8004014B911E02469E2
:105700007CB1D9F800500DB1A542F8D1A268002AA9
:10571000F5D03146384690470028F0DD03B0BDE8AB
:10572000F08FDAF8242090450BD8DAF82810019B86
:10573000994204D36FF0010003B0BDE8F08F9045AB
:10574000F8D101200021FBF76FFFD4E7903F002044
:105750009C3F002000000B40084A136823B90AE070
:1057600003F110021B6933B18342F9D129B91869D9
:1057700010601961704701B110607047903F0020C0
:1057800000F016BBF0B5174B85B01A68164E5F686F
:10579000164D0192346814B911E024697CB12B686C
:1057A0000BB19C42F9D1A368002BF6D0012103A8CC
:1057B00098470028F1DD9DF80C0005B0F0BD0C4BBA
:1057C0005A6A974209D89B6A01998B4203D36FF0BA
:1057D000010005B0F0BD9742F9D101200021FBF78F
:1057E00023FFD7E700930210903F00209C3F00204A
:1057F00000000B40F0B583B006468DF80700FBF7BC
:1058000009FF4FF0FF356FF00044174A821841F14D
:105810000003954274EB03013CBF23462A4613481C
:1058200022F0EEF8124B07461C689CB1114D01E0C6
:1058300024697CB12368002BFAD02B680BB19C4201
:10584000F6D1204601220DF10701FFF749FE246938
:10585000002CEFD117B9304603B0F0BD034822F059
:1058600097F8304603B0F0BD40420F00B03400203E
:10587000903F00209C3F002038B504461BF0BEFD41
:10588000012305461A4620462946FFF7B1FE084B7C
:105890001C682CB163682BB198472469002CF9D19E
:1058A000284638BD2469002CF4D1284638BD00BFF5
:1058B000903F00202DE9F041A2B004460D46FBF7D1
:1058C000A9FE4FF0FF376FF00046264ADFF8A480AC
:1058D000821841F10003974276EB03013CBF3A4640
:1058E0003346214822F08CF800272B4622460646F4
:1058F00001A91E480197FFF7F1FC019B0546D8F866
:105900000040C3B1002C2BD0194F01E0246974B1C1
:105910002368002BFAD03B680BB1A342F6D1204696
:10592000019A02A9FFF7DCFD2469002CF0D10023C5
:10593000D8F8004001932CB1636843B198472469BB
:10594000002CF9D12EB9284622B0BDE8F081246997
:10595000F1E7054822F01CF8284622B0BDE8F081A6
:105960000194EFE740420F00B03400209155001041
:105970009C3F0020903F00200FB400B583B004A9E5
:1059800051F8040B0191FFF795FF03B05DF804EBAC
:1059900004B07047704700BF0022014B1A70704777
:1059A000054400204B79FF2B0BD1887948B9CB797E
:1059B000012B07D1082A05D9034B8A7809201A70D0
:1059C00070470020704700BF054400200120704749
:1059D000012901D00120704708B5104B91881B7830
:1059E000994201D0002008BD5378012B08D0022B2A
:1059F000F8D1002164220846FBF70AFF012008BD08
:105A00005188CB0548BF480AC1F3402258BF4FF028
:105A1000FF3001F07F01FBF779FF00BF0544002054
:105A2000004870477C940210012907D15378012B5C
:105A300002D19388072B03D00020704701207047C4
:105A40001146A623014A01F051BA00BFD4930210B7
:105A50000346012201481A70704700BFB493021038
:105A600008B50B68B3F5966F00D008BD00224FF063
:105A7000FF301146FBF74AFF024A034B10601960E2
:105A8000704700BF303F0020343F0020184B70B5F6
:105A90001A68002A28D0EFF3108172B6D2E8CF4FEF
:105AA0000120002CFAD1C2E8440F002CF6D1BFF33C
:105AB0005F8F00220F4C186859602270C0E88F2F4A
:105AC00081F31088002400250B4E3078FAF770FF20
:105AD00020B9002400252046294670BD3078FAF709
